{
  "contractName": "Coinflip",
  "abi": [
    {
      "anonymous": false,
      "inputs": [
        {
          "indexed": false,
          "internalType": "address",
          "name": "player",
          "type": "address"
        },
        {
          "indexed": false,
          "internalType": "bool",
          "name": "won",
          "type": "bool"
        },
        {
          "indexed": false,
          "internalType": "uint256",
          "name": "playerBalance",
          "type": "uint256"
        }
      ],
      "name": "resultReady",
      "type": "event"
    },
    {
      "inputs": [],
      "name": "balance",
      "outputs": [
        {
          "internalType": "uint256",
          "name": "",
          "type": "uint256"
        }
      ],
      "stateMutability": "view",
      "type": "function",
      "constant": true
    },
    {
      "inputs": [],
      "name": "owner",
      "outputs": [
        {
          "internalType": "address",
          "name": "",
          "type": "address"
        }
      ],
      "stateMutability": "view",
      "type": "function",
      "constant": true
    },
    {
      "inputs": [
        {
          "internalType": "bool",
          "name": "bet",
          "type": "bool"
        }
      ],
      "name": "flip",
      "outputs": [],
      "stateMutability": "payable",
      "type": "function",
      "payable": true
    },
    {
      "inputs": [
        {
          "internalType": "bytes32",
          "name": "_myid",
          "type": "bytes32"
        },
        {
          "internalType": "string",
          "name": "_result",
          "type": "string"
        }
      ],
      "name": "__callback",
      "outputs": [],
      "stateMutability": "nonpayable",
      "type": "function"
    },
    {
      "inputs": [
        {
          "internalType": "bytes32",
          "name": "_queryId",
          "type": "bytes32"
        },
        {
          "internalType": "string",
          "name": "_result",
          "type": "string"
        },
        {
          "internalType": "bytes",
          "name": "_proof",
          "type": "bytes"
        }
      ],
      "name": "__callback",
      "outputs": [],
      "stateMutability": "nonpayable",
      "type": "function"
    },
    {
      "inputs": [],
      "name": "getBalance",
      "outputs": [
        {
          "internalType": "uint256",
          "name": "",
          "type": "uint256"
        }
      ],
      "stateMutability": "view",
      "type": "function",
      "constant": true
    },
    {
      "inputs": [
        {
          "internalType": "address",
          "name": "player",
          "type": "address"
        }
      ],
      "name": "getPlayerBalance",
      "outputs": [
        {
          "internalType": "uint256",
          "name": "",
          "type": "uint256"
        }
      ],
      "stateMutability": "view",
      "type": "function",
      "constant": true
    },
    {
      "inputs": [],
      "name": "withdrawPlayer",
      "outputs": [
        {
          "internalType": "uint256",
          "name": "",
          "type": "uint256"
        }
      ],
      "stateMutability": "nonpayable",
      "type": "function"
    },
    {
      "inputs": [],
      "name": "withdrawAll",
      "outputs": [
        {
          "internalType": "uint256",
          "name": "",
          "type": "uint256"
        }
      ],
      "stateMutability": "nonpayable",
      "type": "function"
    },
    {
      "inputs": [],
      "name": "checkAdmin",
      "outputs": [
        {
          "internalType": "bool",
          "name": "",
          "type": "bool"
        }
      ],
      "stateMutability": "view",
      "type": "function",
      "constant": true
    },
    {
      "inputs": [],
      "name": "deposit",
      "outputs": [],
      "stateMutability": "payable",
      "type": "function",
      "payable": true
    }
  ],
  "bytecode": "0x6080604052336000806101000a81548173ffffffffffffffffffffffffffffffffffffffff021916908373ffffffffffffffffffffffffffffffffffffffff160217905550612e4b806100536000396000f3fe60806040526004361061009c5760003560e01c8063853828b611610064578063853828b6146103625780638da5cb5b1461038d578063ab150226146103e4578063b69ef8a814610413578063d0e30db01461043e578063e2734c93146104485761009c565b806312065fe0146100a15780631d263f67146100cc57806327dc297e146100fc57806338bbfa50146101ce5780635b5c770514610337575b600080fd5b3480156100ad57600080fd5b506100b66104ad565b6040518082815260200191505060405180910390f35b6100fa600480360360208110156100e257600080fd5b810190808035151590602001909291905050506104b7565b005b34801561010857600080fd5b506101cc6004803603604081101561011f57600080fd5b81019080803590602001909291908035906020019064010000000081111561014657600080fd5b82018360208201111561015857600080fd5b8035906020019184600183028401116401000000008311171561017a57600080fd5b91908080601f016020809104026020016040519081016040528093929190818152602001838380828437600081840152601f19601f82011690508083019250505050505050919291929050505061064a565b005b3480156101da57600080fd5b50610335600480360360608110156101f157600080fd5b81019080803590602001909291908035906020019064010000000081111561021857600080fd5b82018360208201111561022a57600080fd5b8035906020019184600183028401116401000000008311171561024c57600080fd5b91908080601f016020809104026020016040519081016040528093929190818152602001838380828437600081840152601f19601f820116905080830192505050505050509192919290803590602001906401000000008111156102af57600080fd5b8201836020820111156102c157600080fd5b803590602001918460018302840111640100000000831117156102e357600080fd5b91908080601f016020809104026020016040519081016040528093929190818152602001838380828437600081840152601f19601f8201169050808301925050505050505091929192905050506106a4565b005b34801561034357600080fd5b5061034c610b0b565b6040518082815260200191505060405180910390f35b34801561036e57600080fd5b50610377610be3565b6040518082815260200191505060405180910390f35b34801561039957600080fd5b506103a2610c9b565b604051808273ffffffffffffffffffffffffffffffffffffffff1673ffffffffffffffffffffffffffffffffffffffff16815260200191505060405180910390f35b3480156103f057600080fd5b506103f9610cc0565b604051808215151515815260200191505060405180910390f35b34801561041f57600080fd5b50610428610d28565b6040518082815260200191505060405180910390f35b610446610d2e565b005b34801561045457600080fd5b506104976004803603602081101561046b57600080fd5b81019080803573ffffffffffffffffffffffffffffffffffffffff169060200190929190505050610d40565b6040518082815260200191505060405180910390f35b6000600954905090565b6009543411156104c657600080fd5b67016345785d8a00003410156104db57600080fd5b6104e3612ced565b818160000190151590811515815250503481604001818152505033816060019073ffffffffffffffffffffffffffffffffffffffff16908173ffffffffffffffffffffffffffffffffffffffff16815250506000809050600062030d40905061054e82600183610d89565b600a819055508260066000600a54815260200190815260200160002060008201518160000160006101000a81548160ff02191690831515021790555060208201518160000160016101000a81548160ff0219169083151502179055506040820151816001015560608201518160020160006101000a81548173ffffffffffffffffffffffffffffffffffffffff021916908373ffffffffffffffffffffffffffffffffffffffff160217905550905050600a54600760003373ffffffffffffffffffffffffffffffffffffffff1673ffffffffffffffffffffffffffffffffffffffff1681526020019081526020016000208190555050505050565b6106a08282600067ffffffffffffffff8111801561066757600080fd5b506040519080825280601f01601f19166020018201604052801561069a5781602001600182028036833780820191505090505b506106a4565b5050565b6106ac6113ae565b73ffffffffffffffffffffffffffffffffffffffff163373ffffffffffffffffffffffffffffffffffffffff16146106e357600080fd5b6000806002846040516020018082805190602001908083835b6020831061071f57805182526020820191506020810190506020830392506106fc565b6001836020036101000a0380198251168184511680821785525050505050509050019150506040516020818303038152906040528051906020012060001c8161076457fe5b06141590506006600085815260200190815260200160002060000160009054906101000a900460ff16151581151514156108895760016006600086815260200190815260200160002060000160016101000a81548160ff0219169083151502179055506006600085815260200190815260200160002060010154600954036009819055506002600660008681526020019081526020016000206001015402600860006006600088815260200190815260200160002060020160009054906101000a900473ffffffffffffffffffffffffffffffffffffffff1673ffffffffffffffffffffffffffffffffffffffff1673ffffffffffffffffffffffffffffffffffffffff168152602001908152602001600020600082825401925050819055506108da565b60006006600086815260200190815260200160002060000160016101000a81548160ff0219169083151502179055506006600085815260200190815260200160002060010154600954016009819055505b7f755544904790feb6c6256b4ee034e8cf22c59b62d564095fcd27e5a9cfb37a4a6006600086815260200190815260200160002060020160009054906101000a900473ffffffffffffffffffffffffffffffffffffffff166006600087815260200190815260200160002060000160019054906101000a900460ff1660086000600660008a815260200190815260200160002060020160009054906101000a900473ffffffffffffffffffffffffffffffffffffffff1673ffffffffffffffffffffffffffffffffffffffff1673ffffffffffffffffffffffffffffffffffffffff16815260200190815260200160002054604051808473ffffffffffffffffffffffffffffffffffffffff1673ffffffffffffffffffffffffffffffffffffffff16815260200183151515158152602001828152602001935050505060405180910390a1600760006006600087815260200190815260200160002060020160009054906101000a900473ffffffffffffffffffffffffffffffffffffffff1673ffffffffffffffffffffffffffffffffffffffff1673ffffffffffffffffffffffffffffffffffffffff1681526020019081526020016000206000905560066000858152602001908152602001600020600080820160006101000a81549060ff02191690556000820160016101000a81549060ff021916905560018201600090556002820160006101000a81549073ffffffffffffffffffffffffffffffffffffffff0219169055505050505050565b600080600860003373ffffffffffffffffffffffffffffffffffffffff1673ffffffffffffffffffffffffffffffffffffffff1681526020019081526020016000205490506000600860003373ffffffffffffffffffffffffffffffffffffffff1673ffffffffffffffffffffffffffffffffffffffff168152602001908152602001600020819055503373ffffffffffffffffffffffffffffffffffffffff166108fc829081150290604051600060405180830381858888f19350505050158015610bdb573d6000803e3d6000fd5b508091505090565b60008060009054906101000a900473ffffffffffffffffffffffffffffffffffffffff1673ffffffffffffffffffffffffffffffffffffffff163373ffffffffffffffffffffffffffffffffffffffff1614610c3e57600080fd5b6000600954905060006009819055503373ffffffffffffffffffffffffffffffffffffffff166108fc829081150290604051600060405180830381858888f19350505050158015610c93573d6000803e3d6000fd5b508091505090565b6000809054906101000a900473ffffffffffffffffffffffffffffffffffffffff1681565b60003373ffffffffffffffffffffffffffffffffffffffff166000809054906101000a900473ffffffffffffffffffffffffffffffffffffffff1673ffffffffffffffffffffffffffffffffffffffff161415610d205760019050610d25565b600090505b90565b60095481565b34600960008282540192505081905550565b6000600860008373ffffffffffffffffffffffffffffffffffffffff1673ffffffffffffffffffffffffffffffffffffffff168152602001908152602001600020549050919050565b60008083118015610d9b575060208311155b610da457600080fd5b600a840293506060600167ffffffffffffffff81118015610dc457600080fd5b506040519080825280601f01601f191660200182016040528015610df75781602001600182028036833780820191505090505b5090508360f81b81600081518110610e0b57fe5b60200101907effffffffffffffffffffffffffffffffffffffffffffffffffffffffffffff1916908160001a9053506060602067ffffffffffffffff81118015610e5457600080fd5b506040519080825280601f01601f191660200182016040528015610e875781602001600182028036833780820191505090505b5090506060602067ffffffffffffffff81118015610ea457600080fd5b506040519080825280601f01601f191660200182016040528015610ed75781602001600182028036833780820191505090505b5090506000610ee46116d0565b9050602083524241186001430340186020840152602082528060208301526060602067ffffffffffffffff81118015610f1c57600080fd5b506040519080825280601f01601f191660200182016040528015610f4f5781602001600182028036833780820191505090505b5090508860208201526060600867ffffffffffffffff81118015610f7257600080fd5b506040519080825280601f01601f191660200182016040528015610fa55781602001600182028036833780820191505090505b509050610fb882601860088460006119f0565b50610fc1612d2f565b604051806080016040528087815260200188815260200186815260200184815250905060006110266040518060400160405280600681526020017f72616e646f6d0000000000000000000000000000000000000000000000000000815250838c611a4f565b90506060600867ffffffffffffffff8111801561104257600080fd5b506040519080825280601f01601f1916602001820160405280156110755781602001600182028036833780820191505090505b50905060208401517f0100000000000000000000000000000000000000000000000000000000000000810460278301537e01000000000000000000000000000000000000000000000000000000000000810460268301537d010000000000000000000000000000000000000000000000000000000000810460258301537c0100000000000000000000000000000000000000000000000000000000810460248301537b01000000000000000000000000000000000000000000000000000000810460238301537a01000000000000000000000000000000000000000000000000000081046022830153790100000000000000000000000000000000000000000000000000810460218301537801000000000000000000000000000000000000000000000000810460208301535061139b8282856001600481106111b457fe5b60200201516002876000600481106111c857fe5b60200201516040518082805190602001908083835b6020831061120057805182526020820191506020810190506020830392506111dd565b6001836020036101000a038019825116818451168082178552505050505050905001915050602060405180830381855afa158015611242573d6000803e3d6000fd5b5050506040513d602081101561125757600080fd5b81019080805190602001909291905050508760026004811061127557fe5b60200201516040516020018085805190602001908083835b602083106112b0578051825260208201915060208101905060208303925061128d565b6001836020036101000a03801982511681845116808217855250505050505090500184805190602001908083835b6020831061130157805182526020820191506020810190506020830392506112de565b6001836020036101000a03801982511681845116808217855250505050505090500183815260200182805190602001908083835b602083106113585780518252602082019150602081019050602083039250611335565b6001836020036101000a03801982511681845116808217855250505050505090500194505050505060405160208183030381529060405280519060200120611dd5565b8199505050505050505050509392505050565b60008073ffffffffffffffffffffffffffffffffffffffff16600260009054906101000a900473ffffffffffffffffffffffffffffffffffffffff1673ffffffffffffffffffffffffffffffffffffffff16148061143657506000611434600260009054906101000a900473ffffffffffffffffffffffffffffffffffffffff16611df1565b145b15611447576114456000611dfc565b505b600260009054906101000a900473ffffffffffffffffffffffffffffffffffffffff1673ffffffffffffffffffffffffffffffffffffffff166338cc48316040518163ffffffff1660e01b8152600401602060405180830381600087803b1580156114b157600080fd5b505af11580156114c5573d6000803e3d6000fd5b505050506040513d60208110156114db57600080fd5b810190808051906020019092919050505073ffffffffffffffffffffffffffffffffffffffff16600160009054906101000a900473ffffffffffffffffffffffffffffffffffffffff1673ffffffffffffffffffffffffffffffffffffffff161461162657600260009054906101000a900473ffffffffffffffffffffffffffffffffffffffff1673ffffffffffffffffffffffffffffffffffffffff166338cc48316040518163ffffffff1660e01b8152600401602060405180830381600087803b1580156115aa57600080fd5b505af11580156115be573d6000803e3d6000fd5b505050506040513d60208110156115d457600080fd5b8101908080519060200190929190505050600160006101000a81548173ffffffffffffffffffffffffffffffffffffffff021916908373ffffffffffffffffffffffffffffffffffffffff1602179055505b600160009054906101000a900473ffffffffffffffffffffffffffffffffffffffff1673ffffffffffffffffffffffffffffffffffffffff1663c281d19e6040518163ffffffff1660e01b8152600401602060405180830381600087803b15801561169057600080fd5b505af11580156116a4573d6000803e3d6000fd5b505050506040513d60208110156116ba57600080fd5b8101908080519060200190929190505050905090565b60008073ffffffffffffffffffffffffffffffffffffffff16600260009054906101000a900473ffffffffffffffffffffffffffffffffffffffff1673ffffffffffffffffffffffffffffffffffffffff16148061175857506000611756600260009054906101000a900473ffffffffffffffffffffffffffffffffffffffff16611df1565b145b15611769576117676000611dfc565b505b600260009054906101000a900473ffffffffffffffffffffffffffffffffffffffff1673ffffffffffffffffffffffffffffffffffffffff166338cc48316040518163ffffffff1660e01b8152600401602060405180830381600087803b1580156117d357600080fd5b505af11580156117e7573d6000803e3d6000fd5b505050506040513d60208110156117fd57600080fd5b810190808051906020019092919050505073ffffffffffffffffffffffffffffffffffffffff16600160009054906101000a900473ffffffffffffffffffffffffffffffffffffffff1673ffffffffffffffffffffffffffffffffffffffff161461194857600260009054906101000a900473ffffffffffffffffffffffffffffffffffffffff1673ffffffffffffffffffffffffffffffffffffffff166338cc48316040518163ffffffff1660e01b8152600401602060405180830381600087803b1580156118cc57600080fd5b505af11580156118e0573d6000803e3d6000fd5b505050506040513d60208110156118f657600080fd5b8101908080519060200190929190505050600160006101000a81548173ffffffffffffffffffffffffffffffffffffffff021916908373ffffffffffffffffffffffffffffffffffffffff1602179055505b600160009054906101000a900473ffffffffffffffffffffffffffffffffffffffff1673ffffffffffffffffffffffffffffffffffffffff1663abaa5f3e6040518163ffffffff1660e01b815260040160206040518083038186803b1580156119b057600080fd5b505afa1580156119c4573d6000803e3d6000fd5b505050506040513d60208110156119da57600080fd5b8101908080519060200190929190505050905090565b6060600082850190508084511015611a0757600080fd5b600086602001905060008460200190505b868860200101821015611a405781890151808288015250602082019150602081019050611a18565b85935050505095945050505050565b60008073ffffffffffffffffffffffffffffffffffffffff16600260009054906101000a900473ffffffffffffffffffffffffffffffffffffffff1673ffffffffffffffffffffffffffffffffffffffff161480611ad757506000611ad5600260009054906101000a900473ffffffffffffffffffffffffffffffffffffffff16611df1565b145b15611ae857611ae66000611dfc565b505b600260009054906101000a900473ffffffffffffffffffffffffffffffffffffffff1673ffffffffffffffffffffffffffffffffffffffff166338cc48316040518163ffffffff1660e01b8152600401602060405180830381600087803b158015611b5257600080fd5b505af1158015611b66573d6000803e3d6000fd5b505050506040513d6020811015611b7c57600080fd5b810190808051906020019092919050505073ffffffffffffffffffffffffffffffffffffffff16600160009054906101000a900473ffffffffffffffffffffffffffffffffffffffff1673ffffffffffffffffffffffffffffffffffffffff1614611cc757600260009054906101000a900473ffffffffffffffffffffffffffffffffffffffff1673ffffffffffffffffffffffffffffffffffffffff166338cc48316040518163ffffffff1660e01b8152600401602060405180830381600087803b158015611c4b57600080fd5b505af1158015611c5f573d6000803e3d6000fd5b505050506040513d6020811015611c7557600080fd5b8101908080519060200190929190505050600160006101000a81548173ffffffffffffffffffffffffffffffffffffffff021916908373ffffffffffffffffffffffffffffffffffffffff1602179055505b6060600467ffffffffffffffff81118015611ce157600080fd5b50604051908082528060200260200182016040528015611d1557816020015b6060815260200190600190039081611d005790505b50905083600060048110611d2557fe5b602002015181600081518110611d3757fe5b602002602001018190525083600160048110611d4f57fe5b602002015181600181518110611d6157fe5b602002602001018190525083600260048110611d7957fe5b602002015181600281518110611d8b57fe5b602002602001018190525083600360048110611da357fe5b602002015181600381518110611db557fe5b6020026020010181905250611dcb858285611e0d565b9150509392505050565b8060046000848152602001908152602001600020819055505050565b6000813b9050919050565b6000611e06612373565b9050919050565b60008073ffffffffffffffffffffffffffffffffffffffff16600260009054906101000a900473ffffffffffffffffffffffffffffffffffffffff1673ffffffffffffffffffffffffffffffffffffffff161480611e9557506000611e93600260009054906101000a900473ffffffffffffffffffffffffffffffffffffffff16611df1565b145b15611ea657611ea46000611dfc565b505b600260009054906101000a900473ffffffffffffffffffffffffffffffffffffffff1673ffffffffffffffffffffffffffffffffffffffff166338cc48316040518163ffffffff1660e01b8152600401602060405180830381600087803b158015611f1057600080fd5b505af1158015611f24573d6000803e3d6000fd5b505050506040513d6020811015611f3a57600080fd5b810190808051906020019092919050505073ffffffffffffffffffffffffffffffffffffffff16600160009054906101000a900473ffffffffffffffffffffffffffffffffffffffff1673ffffffffffffffffffffffffffffffffffffffff161461208557600260009054906101000a900473ffffffffffffffffffffffffffffffffffffffff1673ffffffffffffffffffffffffffffffffffffffff166338cc48316040518163ffffffff1660e01b8152600401602060405180830381600087803b15801561200957600080fd5b505af115801561201d573d6000803e3d6000fd5b505050506040513d602081101561203357600080fd5b8101908080519060200190929190505050600160006101000a81548173ffffffffffffffffffffffffffffffffffffffff021916908373ffffffffffffffffffffffffffffffffffffffff1602179055505b6000600160009054906101000a900473ffffffffffffffffffffffffffffffffffffffff1673ffffffffffffffffffffffffffffffffffffffff16632ef3accc86856040518363ffffffff1660e01b81526004018080602001838152602001828103825284818151815260200191508051906020019080838360005b8381101561211c578082015181840152602081019050612101565b50505050905090810190601f1680156121495780820380516001836020036101000a031916815260200191505b509350505050602060405180830381600087803b15801561216957600080fd5b505af115801561217d573d6000803e3d6000fd5b505050506040513d602081101561219357600080fd5b81019080805190602001909291905050509050823a02670de0b6b3a7640000018111156121c6576000801b91505061236c565b60606121d1856128ca565b9050600160009054906101000a900473ffffffffffffffffffffffffffffffffffffffff1673ffffffffffffffffffffffffffffffffffffffff1663c55c1cb68360008985896040518663ffffffff1660e01b8152600401808581526020018060200180602001848152602001838103835286818151815260200191508051906020019080838360005b8381101561227657808201518184015260208101905061225b565b50505050905090810190601f1680156122a35780820380516001836020036101000a031916815260200191505b50838103825285818151815260200191508051906020019080838360005b838110156122dc5780820151818401526020810190506122c1565b50505050905090810190601f1680156123095780820380516001836020036101000a031916815260200191505b5096505050505050506020604051808303818588803b15801561232b57600080fd5b505af115801561233f573d6000803e3d6000fd5b50505050506040513d602081101561235657600080fd5b8101908080519060200190929190505050925050505b9392505050565b600080612393731d3b2638a7cc9f2cb3d298a3da7a90b67e5506ed611df1565b111561243557731d3b2638a7cc9f2cb3d298a3da7a90b67e5506ed600260006101000a81548173ffffffffffffffffffffffffffffffffffffffff021916908373ffffffffffffffffffffffffffffffffffffffff16021790555061242c6040518060400160405280600b81526020017f6574685f6d61696e6e657400000000000000000000000000000000000000000081525061294a565b600190506128c7565b600061245473c03a2615d5efaf5f49f60b7bb6583eaec212fdf1611df1565b11156124f65773c03a2615d5efaf5f49f60b7bb6583eaec212fdf1600260006101000a81548173ffffffffffffffffffffffffffffffffffffffff021916908373ffffffffffffffffffffffffffffffffffffffff1602179055506124ed6040518060400160405280600c81526020017f6574685f726f707374656e33000000000000000000000000000000000000000081525061294a565b600190506128c7565b600061251573b7a07bcf2ba2f2703b24c0691b5278999c59ac7e611df1565b11156125b75773b7a07bcf2ba2f2703b24c0691b5278999c59ac7e600260006101000a81548173ffffffffffffffffffffffffffffffffffffffff021916908373ffffffffffffffffffffffffffffffffffffffff1602179055506125ae6040518060400160405280600981526020017f6574685f6b6f76616e000000000000000000000000000000000000000000000081525061294a565b600190506128c7565b60006125d673146500cfd35b22e4a392fe0adc06de1a1368ed48611df1565b11156126785773146500cfd35b22e4a392fe0adc06de1a1368ed48600260006101000a81548173ffffffffffffffffffffffffffffffffffffffff021916908373ffffffffffffffffffffffffffffffffffffffff16021790555061266f6040518060400160405280600b81526020017f6574685f72696e6b65627900000000000000000000000000000000000000000081525061294a565b600190506128c7565b600061269773a2998efd205fb9d4b4963afb70778d6354ad3a41611df1565b11156127395773a2998efd205fb9d4b4963afb70778d6354ad3a41600260006101000a81548173ffffffffffffffffffffffffffffffffffffffff021916908373ffffffffffffffffffffffffffffffffffffffff1602179055506127306040518060400160405280600a81526020017f6574685f676f65726c690000000000000000000000000000000000000000000081525061294a565b600190506128c7565b6000612758736f485c8bf6fc43ea212e93bbf8ce046c7f1cb475611df1565b11156127bc57736f485c8bf6fc43ea212e93bbf8ce046c7f1cb475600260006101000a81548173ffffffffffffffffffffffffffffffffffffffff021916908373ffffffffffffffffffffffffffffffffffffffff160217905550600190506128c7565b60006127db7320e12a1f859b3feae5fb2a0a32c18f5a65555bbf611df1565b111561283f577320e12a1f859b3feae5fb2a0a32c18f5a65555bbf600260006101000a81548173ffffffffffffffffffffffffffffffffffffffff021916908373ffffffffffffffffffffffffffffffffffffffff160217905550600190506128c7565b600061285e7351efaf4c8b3c9afbd5ab9f4bbc82784ab6ef8faa611df1565b11156128c2577351efaf4c8b3c9afbd5ab9f4bbc82784ab6ef8faa600260006101000a81548173ffffffffffffffffffffffffffffffffffffffff021916908373ffffffffffffffffffffffffffffffffffffffff160217905550600190506128c7565b600090505b90565b60606128d4612964565b6128dc612d56565b6128e881610400612970565b6128f1816129ba565b60008090505b83518110156129335761292684828151811061290f57fe5b6020026020010151836129c890919063ffffffff16565b80806001019150506128f7565b5061293d816129ed565b8060000151915050919050565b8060039080519060200190612960929190612d70565b5050565b60405180590338823950565b600081905060006020828161298157fe5b061461299a576020818161299157fe5b06602003810190505b808360200181815250506040518084526000815281810160405250505050565b6129c58160046129fb565b50565b6129d58260028351612a1c565b6129e88183612b5c90919063ffffffff16565b505050565b6129f88160076129fb565b50565b612a18601f60058360ff16901b1783612c0790919063ffffffff16565b5050565b60178111612a4857612a438160058460ff16901b60ff161784612c0790919063ffffffff16565b612b57565b60ff8111612a8957612a6d601860058460ff16901b1784612c0790919063ffffffff16565b612a8381600185612c479092919063ffffffff16565b50612b56565b61ffff8111612acb57612aaf601960058460ff16901b1784612c0790919063ffffffff16565b612ac581600285612c479092919063ffffffff16565b50612b55565b63ffffffff8111612b0f57612af3601a60058460ff16901b1784612c0790919063ffffffff16565b612b0981600485612c479092919063ffffffff16565b50612b54565b67ffffffffffffffff8111612b5357612b3b601b60058460ff16901b1784612c0790919063ffffffff16565b612b5181600885612c479092919063ffffffff16565b505b5b5b5b5b505050565b612b64612d56565b82602001518360000151518351011115612b9457612b93836002612b8d86602001518651612cae565b02612cca565b5b60008060008451905085518051602081830101945086518101825260208701935050505b60208110612bdb5781518352602083019250602082019150602081039050612bb8565b60006001826020036101000a039050801983511681855116818117865250508694505050505092915050565b81602001516001836000015151011115612c2d57612c2c826002846020015102612cca565b5b815180516020818301018381536001820183525050505050565b612c4f612d56565b836020015184600001515183011115612c7d57612c7c846002612c76876020015186612cae565b02612cca565b5b60006001836101000a0390508451805184818301018684198251161781528582018352505050849150509392505050565b600081831115612cc057829050612cc4565b8190505b92915050565b606082600001519050612cdd8383612970565b612ce78382612b5c565b50505050565b604051806080016040528060001515815260200160001515815260200160008152602001600073ffffffffffffffffffffffffffffffffffffffff1681525090565b60405180608001604052806004905b6060815260200190600190039081612d3e5790505090565b604051806040016040528060608152602001600081525090565b828054600181600116156101000203166002900490600052602060002090601f016020900481019282601f10612db157805160ff1916838001178555612ddf565b82800160010185558215612ddf579182015b82811115612dde578251825591602001919060010190612dc3565b5b509050612dec9190612df0565b5090565b612e1291905b80821115612e0e576000816000905550600101612df6565b5090565b9056fea2646970667358221220515cb4182e02d7d3a45a3168c487966e688983b7fcab74709febbda66c37a5d564736f6c63430006060033",
  "source": "import \"./Ownable.sol\";\r\nimport \"./provableAPI.sol\";\r\n//pragma solidity 0.5.12;\r\npragma solidity >=0.4.21 <0.7.0;\r\n\r\ncontract Coinflip is Ownable, usingProvable {\r\n\r\n  event resultReady(address player, bool won, uint playerBalance);\r\n\r\n  struct Bet {\r\n    // betting heads (true) or tales (false)\r\n    bool heads;\r\n    // result of last coin-flip\r\n    bool won;\r\n    uint stake;\r\n    address player;\r\n  }\r\n\r\n  mapping(bytes32 => Bet) private queue;\r\n  mapping(address => bytes32) private activePlayers;\r\n  mapping(address => uint) private playerBalances;\r\n\r\n  uint public balance;\r\n\r\n  uint256 constant NUM_RANDOM_BYTES_REQUESTED = 1;\r\n  bytes32 queryId;\r\n\r\n  function flip(bool bet) payable public {\r\n    // check if contract has enough balance\r\n    require(msg.value <= balance);\r\n    // Prevent users draining the contract with 0 Ether bets (oracle gas costs)\r\n    require(msg.value >= 0.1 ether);\r\n//    // Players can only play one bet at a time\r\n//    require(activePlayers[msg.sender] == 0);\r\n\r\n    Bet memory newBet;\r\n    newBet.heads = bet;\r\n    newBet.stake = msg.value;\r\n    newBet.player = msg.sender;\r\n\r\n    uint256 QUERY_EXECUTION_DELAY = 0;\r\n    uint256 GAS_FOR_CALLBACK = 200000;\r\n\r\n    queryId = provable_newRandomDSQuery(QUERY_EXECUTION_DELAY, NUM_RANDOM_BYTES_REQUESTED, GAS_FOR_CALLBACK);\r\n    queue[queryId] = newBet;\r\n    activePlayers[msg.sender] =  queryId;\r\n  }\r\n\r\n  function __callback(bytes32 _queryId, string memory _result, bytes memory _proof) public override {\r\n    // Checks that the the callback function is called from the oracle-contract\r\n    require(msg.sender == provable_cbAddress());\r\n    // Generate heads or tales; heads = true\r\n    bool result = (uint256(keccak256(abi.encodePacked(_result))) % 2) != 0;\r\n\r\n    if(result == queue[_queryId].heads){\r\n      queue[_queryId].won = true;\r\n      balance = balance - (queue[_queryId].stake);\r\n      playerBalances[queue[_queryId].player] += (queue[_queryId].stake)*2;\r\n    }\r\n    else{\r\n      queue[_queryId].won = false;\r\n      balance = balance + (queue[_queryId].stake);\r\n    }\r\n    // emit result to frontend\r\n    emit resultReady(queue[_queryId].player, queue[_queryId].won, playerBalances[queue[_queryId].player]);\r\n    // clear player from mapping\r\n    delete activePlayers[queue[_queryId].player];\r\n    delete queue[_queryId];\r\n  }\r\n\r\n  function getBalance() public view returns (uint) {\r\n    return balance;\r\n  }\r\n\r\n  function getPlayerBalance(address player) public view returns (uint) {\r\n    return playerBalances[player];\r\n  }\r\n\r\n  function withdrawPlayer() public returns(uint) {\r\n    uint toTransfer = playerBalances[msg.sender];\r\n    playerBalances[msg.sender] = 0;\r\n    msg.sender.transfer(toTransfer);\r\n    return toTransfer;\r\n  }\r\n\r\n  function withdrawAll() public onlyOwner returns(uint) {\r\n    uint toTransfer = balance;\r\n    balance = 0;\r\n    msg.sender.transfer(toTransfer);\r\n    return toTransfer;\r\n  }\r\n\r\n  function checkAdmin() public view returns(bool){\r\n    if(owner==msg.sender){\r\n      return true;\r\n      } else { return false; }\r\n    }\r\n\r\n    function deposit() payable public{\r\n      balance += msg.value;\r\n    }\r\n  }\r\n",
  "sourcePath": "C:/Users/larse/Dropbox/Learning/Learn Blockchain/Ivan on Tech/4_Ethereum_201/CoinFlipProject_Oracle/contracts/CoinFlip.sol",
  "compiler": {
    "name": "solc",
    "version": "0.6.6+commit.6c089d02.Emscripten.clang"
  },
  "schemaVersion": "3.0.22",
  "updatedAt": "2020-05-03T16:19:25.166Z",
  "networkType": "ethereum",
  "devdoc": {
    "methods": {
      "__callback(bytes32,string)": {
        "details": "The following `__callback` functions are just placeholders ideally     meant to be defined in child contract when proofs are used.     The function bodies simply silence compiler warnings."
      }
    }
  },
  "userdoc": {
    "methods": {}
  }
}