{
  "contractName": "Coinflip",
  "abi": [
    {
      "anonymous": false,
      "inputs": [
        {
          "indexed": false,
          "internalType": "address",
          "name": "player",
          "type": "address"
        },
        {
          "indexed": false,
          "internalType": "bool",
          "name": "won",
          "type": "bool"
        },
        {
          "indexed": false,
          "internalType": "uint256",
          "name": "playerBalance",
          "type": "uint256"
        }
      ],
      "name": "resultReady",
      "type": "event"
    },
    {
      "inputs": [],
      "name": "balance",
      "outputs": [
        {
          "internalType": "uint256",
          "name": "",
          "type": "uint256"
        }
      ],
      "stateMutability": "view",
      "type": "function",
      "constant": true
    },
    {
      "inputs": [],
      "name": "owner",
      "outputs": [
        {
          "internalType": "address",
          "name": "",
          "type": "address"
        }
      ],
      "stateMutability": "view",
      "type": "function",
      "constant": true
    },
    {
      "inputs": [
        {
          "internalType": "bool",
          "name": "bet",
          "type": "bool"
        }
      ],
      "name": "flip",
      "outputs": [],
      "stateMutability": "payable",
      "type": "function",
      "payable": true
    },
    {
      "inputs": [
        {
          "internalType": "bytes32",
          "name": "_myid",
          "type": "bytes32"
        },
        {
          "internalType": "string",
          "name": "_result",
          "type": "string"
        }
      ],
      "name": "__callback",
      "outputs": [],
      "stateMutability": "nonpayable",
      "type": "function"
    },
    {
      "inputs": [
        {
          "internalType": "bytes32",
          "name": "_queryId",
          "type": "bytes32"
        },
        {
          "internalType": "string",
          "name": "_result",
          "type": "string"
        },
        {
          "internalType": "bytes",
          "name": "_proof",
          "type": "bytes"
        }
      ],
      "name": "__callback",
      "outputs": [],
      "stateMutability": "nonpayable",
      "type": "function"
    },
    {
      "inputs": [],
      "name": "getBalance",
      "outputs": [
        {
          "internalType": "uint256",
          "name": "",
          "type": "uint256"
        }
      ],
      "stateMutability": "view",
      "type": "function",
      "constant": true
    },
    {
      "inputs": [
        {
          "internalType": "address",
          "name": "player",
          "type": "address"
        }
      ],
      "name": "getPlayerBalance",
      "outputs": [
        {
          "internalType": "uint256",
          "name": "",
          "type": "uint256"
        }
      ],
      "stateMutability": "view",
      "type": "function",
      "constant": true
    },
    {
      "inputs": [],
      "name": "withdrawPlayer",
      "outputs": [],
      "stateMutability": "nonpayable",
      "type": "function"
    },
    {
      "inputs": [],
      "name": "withdrawAll",
      "outputs": [],
      "stateMutability": "nonpayable",
      "type": "function"
    },
    {
      "inputs": [],
      "name": "checkAdmin",
      "outputs": [
        {
          "internalType": "bool",
          "name": "",
          "type": "bool"
        }
      ],
      "stateMutability": "view",
      "type": "function",
      "constant": true
    },
    {
      "inputs": [],
      "name": "deposit",
      "outputs": [],
      "stateMutability": "payable",
      "type": "function",
      "payable": true
    }
  ],
  "bytecode": "0x6080604052336000806101000a81548173ffffffffffffffffffffffffffffffffffffffff021916908373ffffffffffffffffffffffffffffffffffffffff1602179055506131eb806100536000396000f3fe60806040526004361061009c5760003560e01c8063853828b611610064578063853828b61461034e5780638da5cb5b14610365578063ab150226146103bc578063b69ef8a8146103eb578063d0e30db014610416578063e2734c93146104205761009c565b806312065fe0146100a15780631d263f67146100cc57806327dc297e146100fc57806338bbfa50146101ce5780635b5c770514610337575b600080fd5b3480156100ad57600080fd5b506100b6610485565b6040518082815260200191505060405180910390f35b6100fa600480360360208110156100e257600080fd5b8101908080351515906020019092919050505061048f565b005b34801561010857600080fd5b506101cc6004803603604081101561011f57600080fd5b81019080803590602001909291908035906020019064010000000081111561014657600080fd5b82018360208201111561015857600080fd5b8035906020019184600183028401116401000000008311171561017a57600080fd5b91908080601f016020809104026020016040519081016040528093929190818152602001838380828437600081840152601f19601f820116905080830192505050505050509192919290505050610661565b005b3480156101da57600080fd5b50610335600480360360608110156101f157600080fd5b81019080803590602001909291908035906020019064010000000081111561021857600080fd5b82018360208201111561022a57600080fd5b8035906020019184600183028401116401000000008311171561024c57600080fd5b91908080601f016020809104026020016040519081016040528093929190818152602001838380828437600081840152601f19601f820116905080830192505050505050509192919290803590602001906401000000008111156102af57600080fd5b8201836020820111156102c157600080fd5b803590602001918460018302840111640100000000831117156102e357600080fd5b91908080601f016020809104026020016040519081016040528093929190818152602001838380828437600081840152601f19601f8201169050808301925050505050505091929192905050506106bb565b005b34801561034357600080fd5b5061034c610b22565b005b34801561035a57600080fd5b50610363610bf5565b005b34801561037157600080fd5b5061037a610ca7565b604051808273ffffffffffffffffffffffffffffffffffffffff1673ffffffffffffffffffffffffffffffffffffffff16815260200191505060405180910390f35b3480156103c857600080fd5b506103d1610ccc565b604051808215151515815260200191505060405180910390f35b3480156103f757600080fd5b50610400610d34565b6040518082815260200191505060405180910390f35b61041e610d3a565b005b34801561042c57600080fd5b5061046f6004803603602081101561044357600080fd5b81019080803573ffffffffffffffffffffffffffffffffffffffff169060200190929190505050610d4c565b6040518082815260200191505060405180910390f35b6000600954905090565b60095434111561049e57600080fd5b67016345785d8a00003410156104b357600080fd5b6104bb61308d565b818160000190151590811515815250506105096040518060400160405280600681526020017f52414e444f4d0000000000000000000000000000000000000000000000000000815250610d95565b340381604001818152505033816060019073ffffffffffffffffffffffffffffffffffffffff16908173ffffffffffffffffffffffffffffffffffffffff16815250506000809050600062030d40905061056582600183611129565b600a819055508260066000600a54815260200190815260200160002060008201518160000160006101000a81548160ff02191690831515021790555060208201518160000160016101000a81548160ff0219169083151502179055506040820151816001015560608201518160020160006101000a81548173ffffffffffffffffffffffffffffffffffffffff021916908373ffffffffffffffffffffffffffffffffffffffff160217905550905050600a54600760003373ffffffffffffffffffffffffffffffffffffffff1673ffffffffffffffffffffffffffffffffffffffff1681526020019081526020016000208190555050505050565b6106b78282600067ffffffffffffffff8111801561067e57600080fd5b506040519080825280601f01601f1916602001820160405280156106b15781602001600182028036833780820191505090505b506106bb565b5050565b6106c361174e565b73ffffffffffffffffffffffffffffffffffffffff163373ffffffffffffffffffffffffffffffffffffffff16146106fa57600080fd5b6000806002846040516020018082805190602001908083835b602083106107365780518252602082019150602081019050602083039250610713565b6001836020036101000a0380198251168184511680821785525050505050509050019150506040516020818303038152906040528051906020012060001c8161077b57fe5b06141590506006600085815260200190815260200160002060000160009054906101000a900460ff16151581151514156108a05760016006600086815260200190815260200160002060000160016101000a81548160ff0219169083151502179055506006600085815260200190815260200160002060010154600954036009819055506002600660008681526020019081526020016000206001015402600860006006600088815260200190815260200160002060020160009054906101000a900473ffffffffffffffffffffffffffffffffffffffff1673ffffffffffffffffffffffffffffffffffffffff1673ffffffffffffffffffffffffffffffffffffffff168152602001908152602001600020600082825401925050819055506108f1565b60006006600086815260200190815260200160002060000160016101000a81548160ff0219169083151502179055506006600085815260200190815260200160002060010154600954016009819055505b7f755544904790feb6c6256b4ee034e8cf22c59b62d564095fcd27e5a9cfb37a4a6006600086815260200190815260200160002060020160009054906101000a900473ffffffffffffffffffffffffffffffffffffffff166006600087815260200190815260200160002060000160019054906101000a900460ff1660086000600660008a815260200190815260200160002060020160009054906101000a900473ffffffffffffffffffffffffffffffffffffffff1673ffffffffffffffffffffffffffffffffffffffff1673ffffffffffffffffffffffffffffffffffffffff16815260200190815260200160002054604051808473ffffffffffffffffffffffffffffffffffffffff1673ffffffffffffffffffffffffffffffffffffffff16815260200183151515158152602001828152602001935050505060405180910390a1600760006006600087815260200190815260200160002060020160009054906101000a900473ffffffffffffffffffffffffffffffffffffffff1673ffffffffffffffffffffffffffffffffffffffff1673ffffffffffffffffffffffffffffffffffffffff1681526020019081526020016000206000905560066000858152602001908152602001600020600080820160006101000a81549060ff02191690556000820160016101000a81549060ff021916905560018201600090556002820160006101000a81549073ffffffffffffffffffffffffffffffffffffffff0219169055505050505050565b6000600860003373ffffffffffffffffffffffffffffffffffffffff1673ffffffffffffffffffffffffffffffffffffffff1681526020019081526020016000205490506000600860003373ffffffffffffffffffffffffffffffffffffffff1673ffffffffffffffffffffffffffffffffffffffff168152602001908152602001600020819055503373ffffffffffffffffffffffffffffffffffffffff166108fc829081150290604051600060405180830381858888f19350505050158015610bf1573d6000803e3d6000fd5b5050565b6000809054906101000a900473ffffffffffffffffffffffffffffffffffffffff1673ffffffffffffffffffffffffffffffffffffffff163373ffffffffffffffffffffffffffffffffffffffff1614610c4e57600080fd5b6000600954905060006009819055503373ffffffffffffffffffffffffffffffffffffffff166108fc829081150290604051600060405180830381858888f19350505050158015610ca3573d6000803e3d6000fd5b5050565b6000809054906101000a900473ffffffffffffffffffffffffffffffffffffffff1681565b60003373ffffffffffffffffffffffffffffffffffffffff166000809054906101000a900473ffffffffffffffffffffffffffffffffffffffff1673ffffffffffffffffffffffffffffffffffffffff161415610d2c5760019050610d31565b600090505b90565b60095481565b34600960008282540192505081905550565b6000600860008373ffffffffffffffffffffffffffffffffffffffff1673ffffffffffffffffffffffffffffffffffffffff168152602001908152602001600020549050919050565b60008073ffffffffffffffffffffffffffffffffffffffff16600260009054906101000a900473ffffffffffffffffffffffffffffffffffffffff1673ffffffffffffffffffffffffffffffffffffffff161480610e1d57506000610e1b600260009054906101000a900473ffffffffffffffffffffffffffffffffffffffff16611a70565b145b15610e2e57610e2c6000611a7b565b505b600260009054906101000a900473ffffffffffffffffffffffffffffffffffffffff1673ffffffffffffffffffffffffffffffffffffffff166338cc48316040518163ffffffff1660e01b8152600401602060405180830381600087803b158015610e9857600080fd5b505af1158015610eac573d6000803e3d6000fd5b505050506040513d6020811015610ec257600080fd5b810190808051906020019092919050505073ffffffffffffffffffffffffffffffffffffffff16600160009054906101000a900473ffffffffffffffffffffffffffffffffffffffff1673ffffffffffffffffffffffffffffffffffffffff161461100d57600260009054906101000a900473ffffffffffffffffffffffffffffffffffffffff1673ffffffffffffffffffffffffffffffffffffffff166338cc48316040518163ffffffff1660e01b8152600401602060405180830381600087803b158015610f9157600080fd5b505af1158015610fa5573d6000803e3d6000fd5b505050506040513d6020811015610fbb57600080fd5b8101908080519060200190929190505050600160006101000a81548173ffffffffffffffffffffffffffffffffffffffff021916908373ffffffffffffffffffffffffffffffffffffffff1602179055505b600160009054906101000a900473ffffffffffffffffffffffffffffffffffffffff1673ffffffffffffffffffffffffffffffffffffffff1663524f3889836040518263ffffffff1660e01b81526004018080602001828103825283818151815260200191508051906020019080838360005b8381101561109b578082015181840152602081019050611080565b50505050905090810190601f1680156110c85780820380516001836020036101000a031916815260200191505b5092505050602060405180830381600087803b1580156110e757600080fd5b505af11580156110fb573d6000803e3d6000fd5b505050506040513d602081101561111157600080fd5b81019080805190602001909291905050509050919050565b6000808311801561113b575060208311155b61114457600080fd5b600a840293506060600167ffffffffffffffff8111801561116457600080fd5b506040519080825280601f01601f1916602001820160405280156111975781602001600182028036833780820191505090505b5090508360f81b816000815181106111ab57fe5b60200101907effffffffffffffffffffffffffffffffffffffffffffffffffffffffffffff1916908160001a9053506060602067ffffffffffffffff811180156111f457600080fd5b506040519080825280601f01601f1916602001820160405280156112275781602001600182028036833780820191505090505b5090506060602067ffffffffffffffff8111801561124457600080fd5b506040519080825280601f01601f1916602001820160405280156112775781602001600182028036833780820191505090505b5090506000611284611a8c565b9050602083524241186001430340186020840152602082528060208301526060602067ffffffffffffffff811180156112bc57600080fd5b506040519080825280601f01601f1916602001820160405280156112ef5781602001600182028036833780820191505090505b5090508860208201526060600867ffffffffffffffff8111801561131257600080fd5b506040519080825280601f01601f1916602001820160405280156113455781602001600182028036833780820191505090505b5090506113588260186008846000611dac565b506113616130cf565b604051806080016040528087815260200188815260200186815260200184815250905060006113c66040518060400160405280600681526020017f72616e646f6d0000000000000000000000000000000000000000000000000000815250838c611e0b565b90506060600867ffffffffffffffff811180156113e257600080fd5b506040519080825280601f01601f1916602001820160405280156114155781602001600182028036833780820191505090505b50905060208401517f0100000000000000000000000000000000000000000000000000000000000000810460278301537e01000000000000000000000000000000000000000000000000000000000000810460268301537d010000000000000000000000000000000000000000000000000000000000810460258301537c0100000000000000000000000000000000000000000000000000000000810460248301537b01000000000000000000000000000000000000000000000000000000810460238301537a01000000000000000000000000000000000000000000000000000081046022830153790100000000000000000000000000000000000000000000000000810460218301537801000000000000000000000000000000000000000000000000810460208301535061173b82828560016004811061155457fe5b602002015160028760006004811061156857fe5b60200201516040518082805190602001908083835b602083106115a0578051825260208201915060208101905060208303925061157d565b6001836020036101000a038019825116818451168082178552505050505050905001915050602060405180830381855afa1580156115e2573d6000803e3d6000fd5b5050506040513d60208110156115f757600080fd5b81019080805190602001909291905050508760026004811061161557fe5b60200201516040516020018085805190602001908083835b60208310611650578051825260208201915060208101905060208303925061162d565b6001836020036101000a03801982511681845116808217855250505050505090500184805190602001908083835b602083106116a1578051825260208201915060208101905060208303925061167e565b6001836020036101000a03801982511681845116808217855250505050505090500183815260200182805190602001908083835b602083106116f857805182526020820191506020810190506020830392506116d5565b6001836020036101000a03801982511681845116808217855250505050505090500194505050505060405160208183030381529060405280519060200120612191565b8199505050505050505050509392505050565b60008073ffffffffffffffffffffffffffffffffffffffff16600260009054906101000a900473ffffffffffffffffffffffffffffffffffffffff1673ffffffffffffffffffffffffffffffffffffffff1614806117d6575060006117d4600260009054906101000a900473ffffffffffffffffffffffffffffffffffffffff16611a70565b145b156117e7576117e56000611a7b565b505b600260009054906101000a900473ffffffffffffffffffffffffffffffffffffffff1673ffffffffffffffffffffffffffffffffffffffff166338cc48316040518163ffffffff1660e01b8152600401602060405180830381600087803b15801561185157600080fd5b505af1158015611865573d6000803e3d6000fd5b505050506040513d602081101561187b57600080fd5b810190808051906020019092919050505073ffffffffffffffffffffffffffffffffffffffff16600160009054906101000a900473ffffffffffffffffffffffffffffffffffffffff1673ffffffffffffffffffffffffffffffffffffffff16146119c657600260009054906101000a900473ffffffffffffffffffffffffffffffffffffffff1673ffffffffffffffffffffffffffffffffffffffff166338cc48316040518163ffffffff1660e01b8152600401602060405180830381600087803b15801561194a57600080fd5b505af115801561195e573d6000803e3d6000fd5b505050506040513d602081101561197457600080fd5b8101908080519060200190929190505050600160006101000a81548173ffffffffffffffffffffffffffffffffffffffff021916908373ffffffffffffffffffffffffffffffffffffffff1602179055505b600160009054906101000a900473ffffffffffffffffffffffffffffffffffffffff1673ffffffffffffffffffffffffffffffffffffffff1663c281d19e6040518163ffffffff1660e01b8152600401602060405180830381600087803b158015611a3057600080fd5b505af1158015611a44573d6000803e3d6000fd5b505050506040513d6020811015611a5a57600080fd5b8101908080519060200190929190505050905090565b6000813b9050919050565b6000611a856121ad565b9050919050565b60008073ffffffffffffffffffffffffffffffffffffffff16600260009054906101000a900473ffffffffffffffffffffffffffffffffffffffff1673ffffffffffffffffffffffffffffffffffffffff161480611b1457506000611b12600260009054906101000a900473ffffffffffffffffffffffffffffffffffffffff16611a70565b145b15611b2557611b236000611a7b565b505b600260009054906101000a900473ffffffffffffffffffffffffffffffffffffffff1673ffffffffffffffffffffffffffffffffffffffff166338cc48316040518163ffffffff1660e01b8152600401602060405180830381600087803b158015611b8f57600080fd5b505af1158015611ba3573d6000803e3d6000fd5b505050506040513d6020811015611bb957600080fd5b810190808051906020019092919050505073ffffffffffffffffffffffffffffffffffffffff16600160009054906101000a900473ffffffffffffffffffffffffffffffffffffffff1673ffffffffffffffffffffffffffffffffffffffff1614611d0457600260009054906101000a900473ffffffffffffffffffffffffffffffffffffffff1673ffffffffffffffffffffffffffffffffffffffff166338cc48316040518163ffffffff1660e01b8152600401602060405180830381600087803b158015611c8857600080fd5b505af1158015611c9c573d6000803e3d6000fd5b505050506040513d6020811015611cb257600080fd5b8101908080519060200190929190505050600160006101000a81548173ffffffffffffffffffffffffffffffffffffffff021916908373ffffffffffffffffffffffffffffffffffffffff1602179055505b600160009054906101000a900473ffffffffffffffffffffffffffffffffffffffff1673ffffffffffffffffffffffffffffffffffffffff1663abaa5f3e6040518163ffffffff1660e01b815260040160206040518083038186803b158015611d6c57600080fd5b505afa158015611d80573d6000803e3d6000fd5b505050506040513d6020811015611d9657600080fd5b8101908080519060200190929190505050905090565b6060600082850190508084511015611dc357600080fd5b600086602001905060008460200190505b868860200101821015611dfc5781890151808288015250602082019150602081019050611dd4565b85935050505095945050505050565b60008073ffffffffffffffffffffffffffffffffffffffff16600260009054906101000a900473ffffffffffffffffffffffffffffffffffffffff1673ffffffffffffffffffffffffffffffffffffffff161480611e9357506000611e91600260009054906101000a900473ffffffffffffffffffffffffffffffffffffffff16611a70565b145b15611ea457611ea26000611a7b565b505b600260009054906101000a900473ffffffffffffffffffffffffffffffffffffffff1673ffffffffffffffffffffffffffffffffffffffff166338cc48316040518163ffffffff1660e01b8152600401602060405180830381600087803b158015611f0e57600080fd5b505af1158015611f22573d6000803e3d6000fd5b505050506040513d6020811015611f3857600080fd5b810190808051906020019092919050505073ffffffffffffffffffffffffffffffffffffffff16600160009054906101000a900473ffffffffffffffffffffffffffffffffffffffff1673ffffffffffffffffffffffffffffffffffffffff161461208357600260009054906101000a900473ffffffffffffffffffffffffffffffffffffffff1673ffffffffffffffffffffffffffffffffffffffff166338cc48316040518163ffffffff1660e01b8152600401602060405180830381600087803b15801561200757600080fd5b505af115801561201b573d6000803e3d6000fd5b505050506040513d602081101561203157600080fd5b8101908080519060200190929190505050600160006101000a81548173ffffffffffffffffffffffffffffffffffffffff021916908373ffffffffffffffffffffffffffffffffffffffff1602179055505b6060600467ffffffffffffffff8111801561209d57600080fd5b506040519080825280602002602001820160405280156120d157816020015b60608152602001906001900390816120bc5790505b509050836000600481106120e157fe5b6020020151816000815181106120f357fe5b60200260200101819052508360016004811061210b57fe5b60200201518160018151811061211d57fe5b60200260200101819052508360026004811061213557fe5b60200201518160028151811061214757fe5b60200260200101819052508360036004811061215f57fe5b60200201518160038151811061217157fe5b6020026020010181905250612187858285612704565b9150509392505050565b8060046000848152602001908152602001600020819055505050565b6000806121cd731d3b2638a7cc9f2cb3d298a3da7a90b67e5506ed611a70565b111561226f57731d3b2638a7cc9f2cb3d298a3da7a90b67e5506ed600260006101000a81548173ffffffffffffffffffffffffffffffffffffffff021916908373ffffffffffffffffffffffffffffffffffffffff1602179055506122666040518060400160405280600b81526020017f6574685f6d61696e6e6574000000000000000000000000000000000000000000815250612c6a565b60019050612701565b600061228e73c03a2615d5efaf5f49f60b7bb6583eaec212fdf1611a70565b11156123305773c03a2615d5efaf5f49f60b7bb6583eaec212fdf1600260006101000a81548173ffffffffffffffffffffffffffffffffffffffff021916908373ffffffffffffffffffffffffffffffffffffffff1602179055506123276040518060400160405280600c81526020017f6574685f726f707374656e330000000000000000000000000000000000000000815250612c6a565b60019050612701565b600061234f73b7a07bcf2ba2f2703b24c0691b5278999c59ac7e611a70565b11156123f15773b7a07bcf2ba2f2703b24c0691b5278999c59ac7e600260006101000a81548173ffffffffffffffffffffffffffffffffffffffff021916908373ffffffffffffffffffffffffffffffffffffffff1602179055506123e86040518060400160405280600981526020017f6574685f6b6f76616e0000000000000000000000000000000000000000000000815250612c6a565b60019050612701565b600061241073146500cfd35b22e4a392fe0adc06de1a1368ed48611a70565b11156124b25773146500cfd35b22e4a392fe0adc06de1a1368ed48600260006101000a81548173ffffffffffffffffffffffffffffffffffffffff021916908373ffffffffffffffffffffffffffffffffffffffff1602179055506124a96040518060400160405280600b81526020017f6574685f72696e6b656279000000000000000000000000000000000000000000815250612c6a565b60019050612701565b60006124d173a2998efd205fb9d4b4963afb70778d6354ad3a41611a70565b11156125735773a2998efd205fb9d4b4963afb70778d6354ad3a41600260006101000a81548173ffffffffffffffffffffffffffffffffffffffff021916908373ffffffffffffffffffffffffffffffffffffffff16021790555061256a6040518060400160405280600a81526020017f6574685f676f65726c6900000000000000000000000000000000000000000000815250612c6a565b60019050612701565b6000612592736f485c8bf6fc43ea212e93bbf8ce046c7f1cb475611a70565b11156125f657736f485c8bf6fc43ea212e93bbf8ce046c7f1cb475600260006101000a81548173ffffffffffffffffffffffffffffffffffffffff021916908373ffffffffffffffffffffffffffffffffffffffff16021790555060019050612701565b60006126157320e12a1f859b3feae5fb2a0a32c18f5a65555bbf611a70565b1115612679577320e12a1f859b3feae5fb2a0a32c18f5a65555bbf600260006101000a81548173ffffffffffffffffffffffffffffffffffffffff021916908373ffffffffffffffffffffffffffffffffffffffff16021790555060019050612701565b60006126987351efaf4c8b3c9afbd5ab9f4bbc82784ab6ef8faa611a70565b11156126fc577351efaf4c8b3c9afbd5ab9f4bbc82784ab6ef8faa600260006101000a81548173ffffffffffffffffffffffffffffffffffffffff021916908373ffffffffffffffffffffffffffffffffffffffff16021790555060019050612701565b600090505b90565b60008073ffffffffffffffffffffffffffffffffffffffff16600260009054906101000a900473ffffffffffffffffffffffffffffffffffffffff1673ffffffffffffffffffffffffffffffffffffffff16148061278c5750600061278a600260009054906101000a900473ffffffffffffffffffffffffffffffffffffffff16611a70565b145b1561279d5761279b6000611a7b565b505b600260009054906101000a900473ffffffffffffffffffffffffffffffffffffffff1673ffffffffffffffffffffffffffffffffffffffff166338cc48316040518163ffffffff1660e01b8152600401602060405180830381600087803b15801561280757600080fd5b505af115801561281b573d6000803e3d6000fd5b505050506040513d602081101561283157600080fd5b810190808051906020019092919050505073ffffffffffffffffffffffffffffffffffffffff16600160009054906101000a900473ffffffffffffffffffffffffffffffffffffffff1673ffffffffffffffffffffffffffffffffffffffff161461297c57600260009054906101000a900473ffffffffffffffffffffffffffffffffffffffff1673ffffffffffffffffffffffffffffffffffffffff166338cc48316040518163ffffffff1660e01b8152600401602060405180830381600087803b15801561290057600080fd5b505af1158015612914573d6000803e3d6000fd5b505050506040513d602081101561292a57600080fd5b8101908080519060200190929190505050600160006101000a81548173ffffffffffffffffffffffffffffffffffffffff021916908373ffffffffffffffffffffffffffffffffffffffff1602179055505b6000600160009054906101000a900473ffffffffffffffffffffffffffffffffffffffff1673ffffffffffffffffffffffffffffffffffffffff16632ef3accc86856040518363ffffffff1660e01b81526004018080602001838152602001828103825284818151815260200191508051906020019080838360005b83811015612a135780820151818401526020810190506129f8565b50505050905090810190601f168015612a405780820380516001836020036101000a031916815260200191505b509350505050602060405180830381600087803b158015612a6057600080fd5b505af1158015612a74573d6000803e3d6000fd5b505050506040513d6020811015612a8a57600080fd5b81019080805190602001909291905050509050823a02670de0b6b3a764000001811115612abd576000801b915050612c63565b6060612ac885612c84565b9050600160009054906101000a900473ffffffffffffffffffffffffffffffffffffffff1673ffffffffffffffffffffffffffffffffffffffff1663c55c1cb68360008985896040518663ffffffff1660e01b8152600401808581526020018060200180602001848152602001838103835286818151815260200191508051906020019080838360005b83811015612b6d578082015181840152602081019050612b52565b50505050905090810190601f168015612b9a5780820380516001836020036101000a031916815260200191505b50838103825285818151815260200191508051906020019080838360005b83811015612bd3578082015181840152602081019050612bb8565b50505050905090810190601f168015612c005780820380516001836020036101000a031916815260200191505b5096505050505050506020604051808303818588803b158015612c2257600080fd5b505af1158015612c36573d6000803e3d6000fd5b50505050506040513d6020811015612c4d57600080fd5b8101908080519060200190929190505050925050505b9392505050565b8060039080519060200190612c809291906130f6565b5050565b6060612c8e612d04565b612c96613176565b612ca281610400612d10565b612cab81612d5a565b60008090505b8351811015612ced57612ce0848281518110612cc957fe5b602002602001015183612d6890919063ffffffff16565b8080600101915050612cb1565b50612cf781612d8d565b8060000151915050919050565b60405180590338823950565b6000819050600060208281612d2157fe5b0614612d3a5760208181612d3157fe5b06602003810190505b808360200181815250506040518084526000815281810160405250505050565b612d65816004612d9b565b50565b612d758260028351612dbc565b612d888183612efc90919063ffffffff16565b505050565b612d98816007612d9b565b50565b612db8601f60058360ff16901b1783612fa790919063ffffffff16565b5050565b60178111612de857612de38160058460ff16901b60ff161784612fa790919063ffffffff16565b612ef7565b60ff8111612e2957612e0d601860058460ff16901b1784612fa790919063ffffffff16565b612e2381600185612fe79092919063ffffffff16565b50612ef6565b61ffff8111612e6b57612e4f601960058460ff16901b1784612fa790919063ffffffff16565b612e6581600285612fe79092919063ffffffff16565b50612ef5565b63ffffffff8111612eaf57612e93601a60058460ff16901b1784612fa790919063ffffffff16565b612ea981600485612fe79092919063ffffffff16565b50612ef4565b67ffffffffffffffff8111612ef357612edb601b60058460ff16901b1784612fa790919063ffffffff16565b612ef181600885612fe79092919063ffffffff16565b505b5b5b5b5b505050565b612f04613176565b82602001518360000151518351011115612f3457612f33836002612f2d8660200151865161304e565b0261306a565b5b60008060008451905085518051602081830101945086518101825260208701935050505b60208110612f7b5781518352602083019250602082019150602081039050612f58565b60006001826020036101000a039050801983511681855116818117865250508694505050505092915050565b81602001516001836000015151011115612fcd57612fcc82600284602001510261306a565b5b815180516020818301018381536001820183525050505050565b612fef613176565b83602001518460000151518301111561301d5761301c84600261301687602001518661304e565b0261306a565b5b60006001836101000a0390508451805184818301018684198251161781528582018352505050849150509392505050565b60008183111561306057829050613064565b8190505b92915050565b60608260000151905061307d8383612d10565b6130878382612efc565b50505050565b604051806080016040528060001515815260200160001515815260200160008152602001600073ffffffffffffffffffffffffffffffffffffffff1681525090565b60405180608001604052806004905b60608152602001906001900390816130de5790505090565b828054600181600116156101000203166002900490600052602060002090601f016020900481019282601f1061313757805160ff1916838001178555613165565b82800160010185558215613165579182015b82811115613164578251825591602001919060010190613149565b5b5090506131729190613190565b5090565b604051806040016040528060608152602001600081525090565b6131b291905b808211156131ae576000816000905550600101613196565b5090565b9056fea2646970667358221220839107ecdc42b5c2be732eca1c82a5ef10aba451d07afaebb0baf824fc6e687864736f6c63430006060033",
  "source": "import \"./Ownable.sol\";\r\nimport \"./provableAPI.sol\";\r\n//pragma solidity 0.5.12;\r\npragma solidity >=0.4.21 <0.7.0;\r\n\r\ncontract Coinflip is Ownable, usingProvable {\r\n\r\n  event resultReady(address player, bool won, uint playerBalance);\r\n\r\n  struct Bet {\r\n    // betting heads (true) or tales (false)\r\n    bool heads;\r\n    // result of last coin-flip\r\n    bool won;\r\n    uint stake;\r\n    address player;\r\n  }\r\n\r\n  mapping(bytes32 => Bet) private queue;\r\n  mapping(address => bytes32) private activePlayers;\r\n  mapping(address => uint) private playerBalances;\r\n\r\n  uint public balance;\r\n\r\n  uint256 constant NUM_RANDOM_BYTES_REQUESTED = 1;\r\n  bytes32 queryId;\r\n\r\n  function flip(bool bet) payable public {\r\n    // check if contract has enough balance to cover a possible win\r\n    require(msg.value <= balance);\r\n    // Prevent users draining the contract with 0 Ether bets (oracle gas costs)\r\n    require(msg.value >= 0.1 ether);\r\n//    // Players can only play one bet at a time\r\n//    require(activePlayers[msg.sender] == 0);\r\n\r\n    Bet memory newBet;\r\n    newBet.heads = bet;\r\n    // the player will have to pay the fee that is required for calling the \"random-oracle\"\r\n    newBet.stake = msg.value - provable_getPrice(\"RANDOM\");\r\n    newBet.player = msg.sender;\r\n\r\n    uint256 QUERY_EXECUTION_DELAY = 0;\r\n    uint256 GAS_FOR_CALLBACK = 200000;\r\n\r\n    queryId = provable_newRandomDSQuery(QUERY_EXECUTION_DELAY, NUM_RANDOM_BYTES_REQUESTED, GAS_FOR_CALLBACK);\r\n    queue[queryId] = newBet;\r\n    activePlayers[msg.sender] =  queryId;\r\n  }\r\n\r\n  function __callback(bytes32 _queryId, string memory _result, bytes memory _proof) public override {\r\n    // Checks that the the callback function is called from the oracle-contract\r\n    require(msg.sender == provable_cbAddress());\r\n    // Generate heads or tales; heads = true\r\n    bool result = (uint256(keccak256(abi.encodePacked(_result))) % 2) != 0;\r\n\r\n    if(result == queue[_queryId].heads){\r\n      queue[_queryId].won = true;\r\n      balance = balance - (queue[_queryId].stake);\r\n      playerBalances[queue[_queryId].player] += (queue[_queryId].stake)*2;\r\n    }\r\n    else{\r\n      queue[_queryId].won = false;\r\n      balance = balance + (queue[_queryId].stake);\r\n    }\r\n    // emit result to frontend\r\n    emit resultReady(queue[_queryId].player, queue[_queryId].won, playerBalances[queue[_queryId].player]);\r\n    // clear player from mapping\r\n    delete activePlayers[queue[_queryId].player];\r\n    delete queue[_queryId];\r\n  }\r\n\r\n  function getBalance() public view returns (uint) {\r\n    return balance;\r\n  }\r\n\r\n  function getPlayerBalance(address player) public view returns (uint) {\r\n    return playerBalances[player];\r\n  }\r\n\r\n  // this function is called from the fronten using .send()\r\n  // those .send() functions which are considred \"setter-functions\" never provide a return value\r\n  // To anyways retrieve a return value an event could be emitted\r\n  function withdrawPlayer() public{\r\n    uint toTransfer = playerBalances[msg.sender];\r\n    playerBalances[msg.sender] = 0;\r\n    msg.sender.transfer(toTransfer);\r\n  }\r\n\r\n  // this function is called from the fronten using .send()\r\n  // those .send() functions which are considred \"setter-functions\" never provide a return value\r\n  // To anyways retrieve a return value an event could be emitted\r\n  function withdrawAll() public onlyOwner{\r\n    uint toTransfer = balance;\r\n    balance = 0;\r\n    msg.sender.transfer(toTransfer);\r\n  }\r\n\r\n  function checkAdmin() public view returns(bool){\r\n    if(owner==msg.sender){\r\n      return true;\r\n      } else { return false; }\r\n    }\r\n\r\n    function deposit() payable public{\r\n      balance += msg.value;\r\n    }\r\n  }\r\n",
  "sourcePath": "C:/Users/larse/Dropbox/Learning/Learn Blockchain/Ivan on Tech/4_Ethereum_201/CoinFlipProject_Oracle/contracts/CoinFlip.sol",
  "compiler": {
    "name": "solc",
    "version": "0.6.6+commit.6c089d02.Emscripten.clang"
  },
  "schemaVersion": "3.0.22",
  "updatedAt": "2020-05-12T18:57:56.726Z",
  "networkType": "ethereum",
  "devdoc": {
    "methods": {
      "__callback(bytes32,string)": {
        "details": "The following `__callback` functions are just placeholders ideally     meant to be defined in child contract when proofs are used.     The function bodies simply silence compiler warnings."
      }
    }
  },
  "userdoc": {
    "methods": {}
  }
}