{
  "contractName": "Coinflip",
  "abi": [
    {
      "constant": true,
      "inputs": [],
      "name": "balance",
      "outputs": [
        {
          "internalType": "uint256",
          "name": "",
          "type": "uint256"
        }
      ],
      "payable": false,
      "stateMutability": "view",
      "type": "function"
    },
    {
      "constant": true,
      "inputs": [],
      "name": "owner",
      "outputs": [
        {
          "internalType": "address",
          "name": "",
          "type": "address"
        }
      ],
      "payable": false,
      "stateMutability": "view",
      "type": "function"
    },
    {
      "constant": false,
      "inputs": [
        {
          "internalType": "bool",
          "name": "bet",
          "type": "bool"
        }
      ],
      "name": "flip",
      "outputs": [],
      "payable": true,
      "stateMutability": "payable",
      "type": "function"
    },
    {
      "constant": true,
      "inputs": [],
      "name": "getBalance",
      "outputs": [
        {
          "internalType": "uint256",
          "name": "",
          "type": "uint256"
        }
      ],
      "payable": false,
      "stateMutability": "view",
      "type": "function"
    },
    {
      "constant": true,
      "inputs": [
        {
          "internalType": "address",
          "name": "player",
          "type": "address"
        }
      ],
      "name": "getLastFlip",
      "outputs": [
        {
          "internalType": "bool",
          "name": "",
          "type": "bool"
        }
      ],
      "payable": false,
      "stateMutability": "view",
      "type": "function"
    },
    {
      "constant": false,
      "inputs": [],
      "name": "deposit",
      "outputs": [],
      "payable": true,
      "stateMutability": "payable",
      "type": "function"
    },
    {
      "constant": false,
      "inputs": [],
      "name": "withdrawAll",
      "outputs": [
        {
          "internalType": "uint256",
          "name": "",
          "type": "uint256"
        }
      ],
      "payable": false,
      "stateMutability": "nonpayable",
      "type": "function"
    },
    {
      "constant": false,
      "inputs": [],
      "name": "checkAdmin",
      "outputs": [
        {
          "internalType": "bool",
          "name": "",
          "type": "bool"
        }
      ],
      "payable": false,
      "stateMutability": "nonpayable",
      "type": "function"
    }
  ],
  "bytecode": "0x6080604052336000806101000a81548173ffffffffffffffffffffffffffffffffffffffff021916908373ffffffffffffffffffffffffffffffffffffffff160217905550610565806100536000396000f3fe60806040526004361061007b5760003560e01c80638da5cb5b1161004e5780638da5cb5b1461016f578063ab150226146101c6578063b69ef8a8146101f5578063d0e30db0146102205761007b565b806312065fe0146100805780631d263f67146100ab5780631e6d5673146100db578063853828b614610144575b600080fd5b34801561008c57600080fd5b5061009561022a565b6040518082815260200191505060405180910390f35b6100d9600480360360208110156100c157600080fd5b81019080803515159060200190929190505050610234565b005b3480156100e757600080fd5b5061012a600480360360208110156100fe57600080fd5b81019080803573ffffffffffffffffffffffffffffffffffffffff16906020019092919050505061037d565b604051808215151515815260200191505060405180910390f35b34801561015057600080fd5b506101596103d3565b6040518082815260200191505060405180910390f35b34801561017b57600080fd5b5061018461048b565b604051808273ffffffffffffffffffffffffffffffffffffffff1673ffffffffffffffffffffffffffffffffffffffff16815260200191505060405180910390f35b3480156101d257600080fd5b506101db6104b0565b604051808215151515815260200191505060405180910390f35b34801561020157600080fd5b5061020a610518565b6040518082815260200191505060405180910390f35b61022861051e565b005b6000600254905090565b60025460023402111561024657600080fd5b6000806002428161025357fe5b061415905081151581151514156103155734600254036002819055503373ffffffffffffffffffffffffffffffffffffffff166108fc600234029081150290604051600060405180830381858888f193505050501580156102b8573d6000803e3d6000fd5b5060018060003373ffffffffffffffffffffffffffffffffffffffff1673ffffffffffffffffffffffffffffffffffffffff16815260200190815260200160002060006101000a81548160ff021916908315150217905550610379565b34600254016002819055506000600160003373ffffffffffffffffffffffffffffffffffffffff1673ffffffffffffffffffffffffffffffffffffffff16815260200190815260200160002060006101000a81548160ff0219169083151502179055505b5050565b6000600160008373ffffffffffffffffffffffffffffffffffffffff1673ffffffffffffffffffffffffffffffffffffffff16815260200190815260200160002060009054906101000a900460ff169050919050565b60008060009054906101000a900473ffffffffffffffffffffffffffffffffffffffff1673ffffffffffffffffffffffffffffffffffffffff163373ffffffffffffffffffffffffffffffffffffffff161461042e57600080fd5b6000600254905060006002819055503373ffffffffffffffffffffffffffffffffffffffff166108fc829081150290604051600060405180830381858888f19350505050158015610483573d6000803e3d6000fd5b508091505090565b6000809054906101000a900473ffffffffffffffffffffffffffffffffffffffff1681565b60003373ffffffffffffffffffffffffffffffffffffffff166000809054906101000a900473ffffffffffffffffffffffffffffffffffffffff1673ffffffffffffffffffffffffffffffffffffffff1614156105105760019050610515565b600090505b90565b60025481565b3460026000828254019250508190555056fea265627a7a72315820c6b5c21578c0ac122708faafaf05dd89f9dcce2f7020533eeb949ea50ebe2dbe64736f6c634300050c0032",
  "source": "import \"./Ownable.sol\";\r\npragma solidity 0.5.12;\r\n\r\ncontract Coinflip is Ownable {\r\n\r\n    mapping(address => bool) lastFlip;\r\n\r\n    uint public balance;\r\n\r\n    function flip(bool bet) payable public {\r\n        // check if contract has enough balance\r\n        require((msg.value)*2 <= balance);\r\n        // Generate heads or tales; heads = true\r\n        bool coin = (now%2) != 0;\r\n        // determin win or lose\r\n        if(coin == bet){\r\n            balance = balance - (msg.value);\r\n            msg.sender.transfer((msg.value)*2);\r\n            lastFlip[msg.sender]=true;\r\n        }\r\n        else{\r\n            balance = balance + msg.value;\r\n            lastFlip[msg.sender]=false;\r\n        }\r\n    }\r\n\r\n    function getBalance() public view returns (uint) {\r\n        return balance;\r\n    }\r\n\r\n    function getLastFlip(address player) public view returns (bool) {\r\n        return lastFlip[player];\r\n    }\r\n\r\n    function deposit() payable public{\r\n        balance += msg.value;\r\n    }\r\n\r\n    function withdrawAll() public onlyOwner returns(uint) {\r\n        uint toTransfer = balance;\r\n        balance = 0;\r\n        msg.sender.transfer(toTransfer);\r\n        return toTransfer;\r\n    }\r\n\r\n    function checkAdmin() public returns(bool){\r\n      if(owner==msg.sender){\r\n        return true;\r\n      } else { return false; }\r\n    }\r\n}\r\n",
  "sourcePath": "C:/Users/larse/Dropbox/Learning/Learn Blockchain/Ivan on Tech/4_Ethereum_201/CoinFlipProject/contracts/CoinFlip.sol",
  "compiler": {
    "name": "solc",
    "version": "0.5.12+commit.7709ece9.Emscripten.clang"
  },
  "schemaVersion": "3.0.16",
  "updatedAt": "2020-04-22T14:29:46.451Z",
  "devdoc": {
    "methods": {}
  },
  "userdoc": {
    "methods": {}
  }
}